{
  "contractName": "TasksContract",
  "abi": [
    {
      "inputs": [],
      "stateMutability": "nonpayable",
      "type": "constructor"
    },
    {
      "anonymous": false,
      "inputs": [
        {
          "indexed": false,
          "internalType": "uint256",
          "name": "id",
          "type": "uint256"
        },
        {
          "indexed": false,
          "internalType": "string",
          "name": "title",
          "type": "string"
        },
        {
          "indexed": false,
          "internalType": "string",
          "name": "description",
          "type": "string"
        },
        {
          "indexed": false,
          "internalType": "bool",
          "name": "done",
          "type": "bool"
        },
        {
          "indexed": false,
          "internalType": "uint256",
          "name": "createdAt",
          "type": "uint256"
        }
      ],
      "name": "TaskCreated",
      "type": "event"
    },
    {
      "anonymous": false,
      "inputs": [
        {
          "indexed": false,
          "internalType": "uint256",
          "name": "id",
          "type": "uint256"
        },
        {
          "indexed": false,
          "internalType": "bool",
          "name": "done",
          "type": "bool"
        }
      ],
      "name": "TaskToggleDone",
      "type": "event"
    },
    {
      "inputs": [],
      "name": "counter",
      "outputs": [
        {
          "internalType": "uint256",
          "name": "",
          "type": "uint256"
        }
      ],
      "stateMutability": "view",
      "type": "function",
      "constant": true
    },
    {
      "inputs": [
        {
          "internalType": "uint256",
          "name": "",
          "type": "uint256"
        }
      ],
      "name": "tasks",
      "outputs": [
        {
          "internalType": "uint256",
          "name": "id",
          "type": "uint256"
        },
        {
          "internalType": "string",
          "name": "title",
          "type": "string"
        },
        {
          "internalType": "string",
          "name": "description",
          "type": "string"
        },
        {
          "internalType": "bool",
          "name": "done",
          "type": "bool"
        },
        {
          "internalType": "uint256",
          "name": "createdAt",
          "type": "uint256"
        }
      ],
      "stateMutability": "view",
      "type": "function",
      "constant": true
    },
    {
      "inputs": [
        {
          "internalType": "string",
          "name": "_title",
          "type": "string"
        },
        {
          "internalType": "string",
          "name": "_description",
          "type": "string"
        }
      ],
      "name": "createTask",
      "outputs": [],
      "stateMutability": "nonpayable",
      "type": "function"
    },
    {
      "inputs": [
        {
          "internalType": "uint256",
          "name": "_id",
          "type": "uint256"
        }
      ],
      "name": "toogleDone",
      "outputs": [],
      "stateMutability": "nonpayable",
      "type": "function"
    }
  ],
  "bytecode": "0x6080604052600080553480156200001557600080fd5b50620000926040518060400160405280600c81526020017f4578616d706c65207461736b00000000000000000000000000000000000000008152506040518060400160405280601381526020017f4578616d706c65206465736372697074696f6e000000000000000000000000008152506200009860201b60201c565b620006a5565b600080815480929190620000ac90620001d9565b91905055506040518060a00160405280600054815260200183815260200182815260200160001515815260200142815250600160008054815260200190815260200160002060008201518160000155602082015181600101908162000112919062000496565b5060408201518160020190816200012a919062000496565b5060608201518160030160006101000a81548160ff021916908315150217905550608082015181600401559050507f6549102bed7d1bb5ec529ee14e2ca60ffc1f47f66d4cc6ca713220613cc64c256000548383600042604051620001949594939291906200063a565b60405180910390a15050565b7f4e487b7100000000000000000000000000000000000000000000000000000000600052601160045260246000fd5b6000819050919050565b6000620001e682620001cf565b91507fffffffffffffffffffffffffffffffffffffffffffffffffffffffffffffffff82036200021b576200021a620001a0565b5b600182019050919050565b600081519050919050565b7f4e487b7100000000000000000000000000000000000000000000000000000000600052604160045260246000fd5b7f4e487b7100000000000000000000000000000000000000000000000000000000600052602260045260246000fd5b60006002820490506001821680620002a857607f821691505b602082108103620002be57620002bd62000260565b5b50919050565b60008190508160005260206000209050919050565b60006020601f8301049050919050565b600082821b905092915050565b600060088302620003287fffffffffffffffffffffffffffffffffffffffffffffffffffffffffffffffff82620002e9565b620003348683620002e9565b95508019841693508086168417925050509392505050565b6000819050919050565b600062000377620003716200036b84620001cf565b6200034c565b620001cf565b9050919050565b6000819050919050565b620003938362000356565b620003ab620003a2826200037e565b848454620002f6565b825550505050565b600090565b620003c2620003b3565b620003cf81848462000388565b505050565b5b81811015620003f757620003eb600082620003b8565b600181019050620003d5565b5050565b601f82111562000446576200041081620002c4565b6200041b84620002d9565b810160208510156200042b578190505b620004436200043a85620002d9565b830182620003d4565b50505b505050565b600082821c905092915050565b60006200046b600019846008026200044b565b1980831691505092915050565b600062000486838362000458565b9150826002028217905092915050565b620004a18262000226565b67ffffffffffffffff811115620004bd57620004bc62000231565b5b620004c982546200028f565b620004d6828285620003fb565b600060209050601f8311600181146200050e5760008415620004f9578287015190505b62000505858262000478565b86555062000575565b601f1984166200051e86620002c4565b60005b82811015620005485784890151825560018201915060208501945060208101905062000521565b8683101562000568578489015162000564601f89168262000458565b8355505b6001600288020188555050505b505050505050565b6200058881620001cf565b82525050565b600082825260208201905092915050565b60005b83811015620005bf578082015181840152602081019050620005a2565b60008484015250505050565b6000601f19601f8301169050919050565b6000620005e98262000226565b620005f581856200058e565b9350620006078185602086016200059f565b6200061281620005cb565b840191505092915050565b60008115159050919050565b62000634816200061d565b82525050565b600060a0820190506200065160008301886200057d565b8181036020830152620006658187620005dc565b905081810360408301526200067b8186620005dc565b90506200068c606083018562000629565b6200069b60808301846200057d565b9695505050505050565b610c8480620006b56000396000f3fe608060405234801561001057600080fd5b506004361061004c5760003560e01c80631f3d803f14610051578063292a45851461006d57806361bc221a146100895780638d977672146100a7575b600080fd5b61006b600480360381019061006691906105c0565b6100db565b005b61008760048036038101906100829190610733565b61031d565b005b61009161041d565b60405161009e91906107ba565b60405180910390f35b6100c160048036038101906100bc91906105c0565b610423565b6040516100d295949392919061086f565b60405180910390f35b6000600160008381526020019081526020016000206040518060a001604052908160008201548152602001600182018054610115906108ff565b80601f0160208091040260200160405190810160405280929190818152602001828054610141906108ff565b801561018e5780601f106101635761010080835404028352916020019161018e565b820191906000526020600020905b81548152906001019060200180831161017157829003601f168201915b505050505081526020016002820180546101a7906108ff565b80601f01602080910402602001604051908101604052809291908181526020018280546101d3906108ff565b80156102205780601f106101f557610100808354040283529160200191610220565b820191906000526020600020905b81548152906001019060200180831161020357829003601f168201915b505050505081526020016003820160009054906101000a900460ff16151515158152602001600482015481525050905080606001511581606001901515908115158152505080600160008481526020019081526020016000206000820151816000015560208201518160010190816102989190610adc565b5060408201518160020190816102ae9190610adc565b5060608201518160030160006101000a81548160ff021916908315150217905550608082015181600401559050507f389dee00d487dd41dd5bf0f43eeaa5b663b3af022d52368df89d388150295f45828260600151604051610311929190610bae565b60405180910390a15050565b60008081548092919061032f90610c06565b91905055506040518060a0016040528060005481526020018381526020018281526020016000151581526020014281525060016000805481526020019081526020016000206000820151816000015560208201518160010190816103939190610adc565b5060408201518160020190816103a99190610adc565b5060608201518160030160006101000a81548160ff021916908315150217905550608082015181600401559050507f6549102bed7d1bb5ec529ee14e2ca60ffc1f47f66d4cc6ca713220613cc64c25600054838360004260405161041195949392919061086f565b60405180910390a15050565b60005481565b600160205280600052604060002060009150905080600001549080600101805461044c906108ff565b80601f0160208091040260200160405190810160405280929190818152602001828054610478906108ff565b80156104c55780601f1061049a576101008083540402835291602001916104c5565b820191906000526020600020905b8154815290600101906020018083116104a857829003601f168201915b5050505050908060020180546104da906108ff565b80601f0160208091040260200160405190810160405280929190818152602001828054610506906108ff565b80156105535780601f1061052857610100808354040283529160200191610553565b820191906000526020600020905b81548152906001019060200180831161053657829003601f168201915b5050505050908060030160009054906101000a900460ff16908060040154905085565b6000604051905090565b600080fd5b600080fd5b6000819050919050565b61059d8161058a565b81146105a857600080fd5b50565b6000813590506105ba81610594565b92915050565b6000602082840312156105d6576105d5610580565b5b60006105e4848285016105ab565b91505092915050565b600080fd5b600080fd5b6000601f19601f8301169050919050565b7f4e487b7100000000000000000000000000000000000000000000000000000000600052604160045260246000fd5b610640826105f7565b810181811067ffffffffffffffff8211171561065f5761065e610608565b5b80604052505050565b6000610672610576565b905061067e8282610637565b919050565b600067ffffffffffffffff82111561069e5761069d610608565b5b6106a7826105f7565b9050602081019050919050565b82818337600083830152505050565b60006106d66106d184610683565b610668565b9050828152602081018484840111156106f2576106f16105f2565b5b6106fd8482856106b4565b509392505050565b600082601f83011261071a576107196105ed565b5b813561072a8482602086016106c3565b91505092915050565b6000806040838503121561074a57610749610580565b5b600083013567ffffffffffffffff81111561076857610767610585565b5b61077485828601610705565b925050602083013567ffffffffffffffff81111561079557610794610585565b5b6107a185828601610705565b9150509250929050565b6107b48161058a565b82525050565b60006020820190506107cf60008301846107ab565b92915050565b600081519050919050565b600082825260208201905092915050565b60005b8381101561080f5780820151818401526020810190506107f4565b60008484015250505050565b6000610826826107d5565b61083081856107e0565b93506108408185602086016107f1565b610849816105f7565b840191505092915050565b60008115159050919050565b61086981610854565b82525050565b600060a08201905061088460008301886107ab565b8181036020830152610896818761081b565b905081810360408301526108aa818661081b565b90506108b96060830185610860565b6108c660808301846107ab565b9695505050505050565b7f4e487b7100000000000000000000000000000000000000000000000000000000600052602260045260246000fd5b6000600282049050600182168061091757607f821691505b60208210810361092a576109296108d0565b5b50919050565b60008190508160005260206000209050919050565b60006020601f8301049050919050565b600082821b905092915050565b6000600883026109927fffffffffffffffffffffffffffffffffffffffffffffffffffffffffffffffff82610955565b61099c8683610955565b95508019841693508086168417925050509392505050565b6000819050919050565b60006109d96109d46109cf8461058a565b6109b4565b61058a565b9050919050565b6000819050919050565b6109f3836109be565b610a076109ff826109e0565b848454610962565b825550505050565b600090565b610a1c610a0f565b610a278184846109ea565b505050565b5b81811015610a4b57610a40600082610a14565b600181019050610a2d565b5050565b601f821115610a9057610a6181610930565b610a6a84610945565b81016020851015610a79578190505b610a8d610a8585610945565b830182610a2c565b50505b505050565b600082821c905092915050565b6000610ab360001984600802610a95565b1980831691505092915050565b6000610acc8383610aa2565b9150826002028217905092915050565b610ae5826107d5565b67ffffffffffffffff811115610afe57610afd610608565b5b610b0882546108ff565b610b13828285610a4f565b600060209050601f831160018114610b465760008415610b34578287015190505b610b3e8582610ac0565b865550610ba6565b601f198416610b5486610930565b60005b82811015610b7c57848901518255600182019150602085019450602081019050610b57565b86831015610b995784890151610b95601f891682610aa2565b8355505b6001600288020188555050505b505050505050565b6000604082019050610bc360008301856107ab565b610bd06020830184610860565b9392505050565b7f4e487b7100000000000000000000000000000000000000000000000000000000600052601160045260246000fd5b6000610c118261058a565b91507fffffffffffffffffffffffffffffffffffffffffffffffffffffffffffffffff8203610c4357610c42610bd7565b5b60018201905091905056fea2646970667358221220dfd2ce69f529b2a532c5174652249b9c68ed2c1bf54ecaa08114b2cfbdc0869e64736f6c63430008110033",
  "immutableReferences": {},
  "source": "// SPDX-License-Identifier: MIT\r\npragma solidity ^0.8.17;\r\n\r\ncontract TasksContract{\r\n\r\n    uint public counter = 0;\r\n\r\n    constructor(){\r\n        createTask(\"Example task\", \"Example description\");\r\n    }\r\n\r\n    event TaskCreated(\r\n        uint256 id,\r\n        string title,\r\n        string description,\r\n        bool done,\r\n        uint256 createdAt\r\n    );\r\n\r\n    event TaskToggleDone(uint id,bool done);\r\n\r\n    struct Task{\r\n        uint256 id;\r\n        string title;\r\n        string description;\r\n        bool done;\r\n        uint256 createdAt;\r\n    }\r\n\r\n    mapping (uint256 => Task ) public tasks;\r\n\r\n    function createTask(string memory _title,string memory _description) public {\r\n        counter++;\r\n        tasks[counter] = Task(counter, _title, _description,false, block.timestamp);\r\n        emit TaskCreated(counter, _title, _description, false,  block.timestamp);\r\n    }\r\n\r\n    function toogleDone(uint _id) public{\r\n        Task memory _task = tasks[_id];\r\n        _task.done = !_task.done;\r\n        tasks[_id] = _task;\r\n        emit  TaskToggleDone(_id,_task.done);\r\n    }\r\n\r\n}",
  "sourcePath": "C:\\xampp\\htdocs\\web\\Blockchain\\Tareas\\contracts\\TasksContract.sol",
  "compiler": {
    "name": "solc",
    "version": "0.8.17+commit.8df45f5f.Emscripten.clang"
  },
  "schemaVersion": "3.4.10",
  "updatedAt": "2022-11-01T21:59:35.276Z",
  "networkType": "ethereum",
  "devdoc": {
    "kind": "dev",
    "methods": {},
    "version": 1
  },
  "userdoc": {
    "kind": "user",
    "methods": {},
    "version": 1
  }
}