{
  "contractName": "TasksContract",
  "abi": [
    {
      "inputs": [],
      "stateMutability": "nonpayable",
      "type": "constructor"
    },
    {
      "anonymous": false,
      "inputs": [
        {
          "indexed": false,
          "internalType": "uint256",
          "name": "id",
          "type": "uint256"
        },
        {
          "indexed": false,
          "internalType": "string",
          "name": "title",
          "type": "string"
        },
        {
          "indexed": false,
          "internalType": "string",
          "name": "description",
          "type": "string"
        },
        {
          "indexed": false,
          "internalType": "bool",
          "name": "done",
          "type": "bool"
        },
        {
          "indexed": false,
          "internalType": "uint256",
          "name": "createdAt",
          "type": "uint256"
        }
      ],
      "name": "TaskCreated",
      "type": "event"
    },
    {
      "anonymous": false,
      "inputs": [
        {
          "indexed": false,
          "internalType": "uint256",
          "name": "id",
          "type": "uint256"
        },
        {
          "indexed": false,
          "internalType": "bool",
          "name": "done",
          "type": "bool"
        }
      ],
      "name": "TaskToggleDone",
      "type": "event"
    },
    {
      "inputs": [],
      "name": "counter",
      "outputs": [
        {
          "internalType": "uint256",
          "name": "",
          "type": "uint256"
        }
      ],
      "stateMutability": "view",
      "type": "function",
      "constant": true
    },
    {
      "inputs": [
        {
          "internalType": "uint256",
          "name": "",
          "type": "uint256"
        }
      ],
      "name": "task",
      "outputs": [
        {
          "internalType": "uint256",
          "name": "id",
          "type": "uint256"
        },
        {
          "internalType": "string",
          "name": "title",
          "type": "string"
        },
        {
          "internalType": "string",
          "name": "description",
          "type": "string"
        },
        {
          "internalType": "bool",
          "name": "done",
          "type": "bool"
        },
        {
          "internalType": "uint256",
          "name": "createdAt",
          "type": "uint256"
        }
      ],
      "stateMutability": "view",
      "type": "function",
      "constant": true
    },
    {
      "inputs": [
        {
          "internalType": "string",
          "name": "_title",
          "type": "string"
        },
        {
          "internalType": "string",
          "name": "_description",
          "type": "string"
        }
      ],
      "name": "createTask",
      "outputs": [],
      "stateMutability": "nonpayable",
      "type": "function"
    },
    {
      "inputs": [
        {
          "internalType": "uint256",
          "name": "_id",
          "type": "uint256"
        }
      ],
      "name": "toogleDone",
      "outputs": [],
      "stateMutability": "nonpayable",
      "type": "function"
    }
  ],
  "bytecode": "0x6080604052600080553480156200001557600080fd5b50620000926040518060400160405280600c81526020017f4578616d706c65207461736b00000000000000000000000000000000000000008152506040518060400160405280601381526020017f4578616d706c65206465736372697074696f6e000000000000000000000000008152506200009860201b60201c565b620006a5565b600080815480929190620000ac90620001d9565b91905055506040518060a00160405280600054815260200183815260200182815260200160001515815260200142815250600160008054815260200190815260200160002060008201518160000155602082015181600101908162000112919062000496565b5060408201518160020190816200012a919062000496565b5060608201518160030160006101000a81548160ff021916908315150217905550608082015181600401559050507f6549102bed7d1bb5ec529ee14e2ca60ffc1f47f66d4cc6ca713220613cc64c256000548383600042604051620001949594939291906200063a565b60405180910390a15050565b7f4e487b7100000000000000000000000000000000000000000000000000000000600052601160045260246000fd5b6000819050919050565b6000620001e682620001cf565b91507fffffffffffffffffffffffffffffffffffffffffffffffffffffffffffffffff82036200021b576200021a620001a0565b5b600182019050919050565b600081519050919050565b7f4e487b7100000000000000000000000000000000000000000000000000000000600052604160045260246000fd5b7f4e487b7100000000000000000000000000000000000000000000000000000000600052602260045260246000fd5b60006002820490506001821680620002a857607f821691505b602082108103620002be57620002bd62000260565b5b50919050565b60008190508160005260206000209050919050565b60006020601f8301049050919050565b600082821b905092915050565b600060088302620003287fffffffffffffffffffffffffffffffffffffffffffffffffffffffffffffffff82620002e9565b620003348683620002e9565b95508019841693508086168417925050509392505050565b6000819050919050565b600062000377620003716200036b84620001cf565b6200034c565b620001cf565b9050919050565b6000819050919050565b620003938362000356565b620003ab620003a2826200037e565b848454620002f6565b825550505050565b600090565b620003c2620003b3565b620003cf81848462000388565b505050565b5b81811015620003f757620003eb600082620003b8565b600181019050620003d5565b5050565b601f82111562000446576200041081620002c4565b6200041b84620002d9565b810160208510156200042b578190505b620004436200043a85620002d9565b830182620003d4565b50505b505050565b600082821c905092915050565b60006200046b600019846008026200044b565b1980831691505092915050565b600062000486838362000458565b9150826002028217905092915050565b620004a18262000226565b67ffffffffffffffff811115620004bd57620004bc62000231565b5b620004c982546200028f565b620004d6828285620003fb565b600060209050601f8311600181146200050e5760008415620004f9578287015190505b62000505858262000478565b86555062000575565b601f1984166200051e86620002c4565b60005b82811015620005485784890151825560018201915060208501945060208101905062000521565b8683101562000568578489015162000564601f89168262000458565b8355505b6001600288020188555050505b505050505050565b6200058881620001cf565b82525050565b600082825260208201905092915050565b60005b83811015620005bf578082015181840152602081019050620005a2565b60008484015250505050565b6000601f19601f8301169050919050565b6000620005e98262000226565b620005f581856200058e565b9350620006078185602086016200059f565b6200061281620005cb565b840191505092915050565b60008115159050919050565b62000634816200061d565b82525050565b600060a0820190506200065160008301886200057d565b8181036020830152620006658187620005dc565b905081810360408301526200067b8186620005dc565b90506200068c606083018562000629565b6200069b60808301846200057d565b9695505050505050565b610c8480620006b56000396000f3fe608060405234801561001057600080fd5b506004361061004c5760003560e01c806317751a21146100515780631f3d803f14610085578063292a4585146100a157806361bc221a146100bd575b600080fd5b61006b600480360381019061006691906105c0565b6100db565b60405161007c9594939291906106a7565b60405180910390f35b61009f600480360381019061009a91906105c0565b61022e565b005b6100bb60048036038101906100b6919061083d565b610470565b005b6100c5610570565b6040516100d291906108b5565b60405180910390f35b6001602052806000526040600020600091509050806000015490806001018054610104906108ff565b80601f0160208091040260200160405190810160405280929190818152602001828054610130906108ff565b801561017d5780601f106101525761010080835404028352916020019161017d565b820191906000526020600020905b81548152906001019060200180831161016057829003601f168201915b505050505090806002018054610192906108ff565b80601f01602080910402602001604051908101604052809291908181526020018280546101be906108ff565b801561020b5780601f106101e05761010080835404028352916020019161020b565b820191906000526020600020905b8154815290600101906020018083116101ee57829003601f168201915b5050505050908060030160009054906101000a900460ff16908060040154905085565b6000600160008381526020019081526020016000206040518060a001604052908160008201548152602001600182018054610268906108ff565b80601f0160208091040260200160405190810160405280929190818152602001828054610294906108ff565b80156102e15780601f106102b6576101008083540402835291602001916102e1565b820191906000526020600020905b8154815290600101906020018083116102c457829003601f168201915b505050505081526020016002820180546102fa906108ff565b80601f0160208091040260200160405190810160405280929190818152602001828054610326906108ff565b80156103735780601f1061034857610100808354040283529160200191610373565b820191906000526020600020905b81548152906001019060200180831161035657829003601f168201915b505050505081526020016003820160009054906101000a900460ff16151515158152602001600482015481525050905080606001511581606001901515908115158152505080600160008481526020019081526020016000206000820151816000015560208201518160010190816103eb9190610adc565b5060408201518160020190816104019190610adc565b5060608201518160030160006101000a81548160ff021916908315150217905550608082015181600401559050507f389dee00d487dd41dd5bf0f43eeaa5b663b3af022d52368df89d388150295f45828260600151604051610464929190610bae565b60405180910390a15050565b60008081548092919061048290610c06565b91905055506040518060a0016040528060005481526020018381526020018281526020016000151581526020014281525060016000805481526020019081526020016000206000820151816000015560208201518160010190816104e69190610adc565b5060408201518160020190816104fc9190610adc565b5060608201518160030160006101000a81548160ff021916908315150217905550608082015181600401559050507f6549102bed7d1bb5ec529ee14e2ca60ffc1f47f66d4cc6ca713220613cc64c2560005483836000426040516105649594939291906106a7565b60405180910390a15050565b60005481565b6000604051905090565b600080fd5b600080fd5b6000819050919050565b61059d8161058a565b81146105a857600080fd5b50565b6000813590506105ba81610594565b92915050565b6000602082840312156105d6576105d5610580565b5b60006105e4848285016105ab565b91505092915050565b6105f68161058a565b82525050565b600081519050919050565b600082825260208201905092915050565b60005b8381101561063657808201518184015260208101905061061b565b60008484015250505050565b6000601f19601f8301169050919050565b600061065e826105fc565b6106688185610607565b9350610678818560208601610618565b61068181610642565b840191505092915050565b60008115159050919050565b6106a18161068c565b82525050565b600060a0820190506106bc60008301886105ed565b81810360208301526106ce8187610653565b905081810360408301526106e28186610653565b90506106f16060830185610698565b6106fe60808301846105ed565b9695505050505050565b600080fd5b600080fd5b7f4e487b7100000000000000000000000000000000000000000000000000000000600052604160045260246000fd5b61074a82610642565b810181811067ffffffffffffffff8211171561076957610768610712565b5b80604052505050565b600061077c610576565b90506107888282610741565b919050565b600067ffffffffffffffff8211156107a8576107a7610712565b5b6107b182610642565b9050602081019050919050565b82818337600083830152505050565b60006107e06107db8461078d565b610772565b9050828152602081018484840111156107fc576107fb61070d565b5b6108078482856107be565b509392505050565b600082601f83011261082457610823610708565b5b81356108348482602086016107cd565b91505092915050565b6000806040838503121561085457610853610580565b5b600083013567ffffffffffffffff81111561087257610871610585565b5b61087e8582860161080f565b925050602083013567ffffffffffffffff81111561089f5761089e610585565b5b6108ab8582860161080f565b9150509250929050565b60006020820190506108ca60008301846105ed565b92915050565b7f4e487b7100000000000000000000000000000000000000000000000000000000600052602260045260246000fd5b6000600282049050600182168061091757607f821691505b60208210810361092a576109296108d0565b5b50919050565b60008190508160005260206000209050919050565b60006020601f8301049050919050565b600082821b905092915050565b6000600883026109927fffffffffffffffffffffffffffffffffffffffffffffffffffffffffffffffff82610955565b61099c8683610955565b95508019841693508086168417925050509392505050565b6000819050919050565b60006109d96109d46109cf8461058a565b6109b4565b61058a565b9050919050565b6000819050919050565b6109f3836109be565b610a076109ff826109e0565b848454610962565b825550505050565b600090565b610a1c610a0f565b610a278184846109ea565b505050565b5b81811015610a4b57610a40600082610a14565b600181019050610a2d565b5050565b601f821115610a9057610a6181610930565b610a6a84610945565b81016020851015610a79578190505b610a8d610a8585610945565b830182610a2c565b50505b505050565b600082821c905092915050565b6000610ab360001984600802610a95565b1980831691505092915050565b6000610acc8383610aa2565b9150826002028217905092915050565b610ae5826105fc565b67ffffffffffffffff811115610afe57610afd610712565b5b610b0882546108ff565b610b13828285610a4f565b600060209050601f831160018114610b465760008415610b34578287015190505b610b3e8582610ac0565b865550610ba6565b601f198416610b5486610930565b60005b82811015610b7c57848901518255600182019150602085019450602081019050610b57565b86831015610b995784890151610b95601f891682610aa2565b8355505b6001600288020188555050505b505050505050565b6000604082019050610bc360008301856105ed565b610bd06020830184610698565b9392505050565b7f4e487b7100000000000000000000000000000000000000000000000000000000600052601160045260246000fd5b6000610c118261058a565b91507fffffffffffffffffffffffffffffffffffffffffffffffffffffffffffffffff8203610c4357610c42610bd7565b5b60018201905091905056fea264697066735822122027843ecd9b54c117e8ce80ffaf4b8225a3052c86217a7089205f596df8357dca64736f6c63430008110033",
  "immutableReferences": {},
  "source": "// SPDX-License-Identifier: MIT\r\npragma solidity ^0.8.17;\r\n\r\ncontract TasksContract{\r\n\r\n    uint public counter = 0;\r\n\r\n    constructor(){\r\n        createTask(\"Example task\", \"Example description\");\r\n    }\r\n\r\n    event TaskCreated(\r\n        uint256 id,\r\n        string title,\r\n        string description,\r\n        bool done,\r\n        uint256 createdAt\r\n    );\r\n\r\n    event TaskToggleDone(uint id,bool done);\r\n\r\n    struct Task{\r\n        uint256 id;\r\n        string title;\r\n        string description;\r\n        bool done;\r\n        uint256 createdAt;\r\n    }\r\n\r\n    mapping (uint256 => Task ) public task;\r\n\r\n    function createTask(string memory _title,string memory _description) public {\r\n        counter++;\r\n        task[counter] = Task(counter, _title, _description,false, block.timestamp);\r\n        emit TaskCreated(counter, _title, _description, false,  block.timestamp);\r\n    }\r\n\r\n    function toogleDone(uint _id) public{\r\n        Task memory _task = task[_id];\r\n        _task.done = !_task.done;\r\n        task[_id] = _task;\r\n        emit  TaskToggleDone(_id,_task.done);\r\n    }\r\n\r\n}",
  "sourcePath": "C:\\xampp\\htdocs\\web\\Blockchain\\Tareas\\contracts\\TasksContract.sol",
  "compiler": {
    "name": "solc",
    "version": "0.8.17+commit.8df45f5f.Emscripten.clang"
  },
  "schemaVersion": "3.4.10",
  "updatedAt": "2022-11-03T16:49:24.888Z",
  "networkType": "ethereum",
  "devdoc": {
    "kind": "dev",
    "methods": {},
    "version": 1
  },
  "userdoc": {
    "kind": "user",
    "methods": {},
    "version": 1
  }
}